:020000000029D5
:100200008316031788018901031305148514091047
:1002100000308700F030880000308600031383121E
:100220008601A0018701880141214921031383121E
:100230000B1D18295621860A861925211F29051804
:100240003021851839212B211829861828210800EA
:10025000880A86010800200808020319890A080094
:1002600005183029200800228700A00AA01BA00141
:10027000080085183929200800228700A003A01B48
:100280000800A001031383160F140F178F120F1607
:1002900008000313831681128111011581140114C2
:1002A000031383123D3081000B11080003138312E6
:0802B0003D3081000B11080034
:100400008A018A140F39820706345B344F3466340C
:100410006D347D3407347F346F3477347C34393431
:080420005E34793471343F347D
:04400E00C430FF3F7C
:00000001FF
